{
  "_format": "hh-sol-artifact-1",
  "contractName": "TamperProof",
  "sourceName": "contracts/TamperProof.sol",
  "abi": [
    {
      "inputs": [],
      "stateMutability": "nonpayable",
      "type": "constructor"
    },
    {
      "inputs": [],
      "name": "TamperProof__NotAuthorized",
      "type": "error"
    },
    {
      "inputs": [
        {
          "internalType": "string",
          "name": "_title",
          "type": "string"
        },
        {
          "internalType": "string",
          "name": "_author",
          "type": "string"
        },
        {
          "internalType": "string",
          "name": "_creator",
          "type": "string"
        },
        {
          "internalType": "string",
          "name": "_producer",
          "type": "string"
        },
        {
          "internalType": "string",
          "name": "_dateCreated",
          "type": "string"
        },
        {
          "internalType": "uint256",
          "name": "_docLength",
          "type": "uint256"
        }
      ],
      "name": "addDocument",
      "outputs": [],
      "stateMutability": "nonpayable",
      "type": "function"
    },
    {
      "inputs": [
        {
          "internalType": "uint256",
          "name": "_id",
          "type": "uint256"
        },
        {
          "internalType": "string",
          "name": "_title",
          "type": "string"
        },
        {
          "internalType": "string",
          "name": "_author",
          "type": "string"
        },
        {
          "internalType": "string",
          "name": "_creator",
          "type": "string"
        },
        {
          "internalType": "string",
          "name": "_producer",
          "type": "string"
        },
        {
          "internalType": "string",
          "name": "_dateCreated",
          "type": "string"
        },
        {
          "internalType": "uint256",
          "name": "_docLength",
          "type": "uint256"
        }
      ],
      "name": "approveDocument",
      "outputs": [
        {
          "internalType": "bool",
          "name": "",
          "type": "bool"
        }
      ],
      "stateMutability": "view",
      "type": "function"
    },
    {
      "inputs": [],
      "name": "getAdmin",
      "outputs": [
        {
          "internalType": "address",
          "name": "",
          "type": "address"
        }
      ],
      "stateMutability": "view",
      "type": "function"
    },
    {
      "inputs": [],
      "name": "getCount",
      "outputs": [
        {
          "internalType": "uint256",
          "name": "",
          "type": "uint256"
        }
      ],
      "stateMutability": "view",
      "type": "function"
    },
    {
      "inputs": [
        {
          "internalType": "uint256",
          "name": "docId",
          "type": "uint256"
        }
      ],
      "name": "getDocument",
      "outputs": [
        {
          "components": [
            {
              "internalType": "uint256",
              "name": "id",
              "type": "uint256"
            },
            {
              "internalType": "string",
              "name": "title",
              "type": "string"
            },
            {
              "internalType": "string",
              "name": "author",
              "type": "string"
            },
            {
              "internalType": "string",
              "name": "creator",
              "type": "string"
            },
            {
              "internalType": "string",
              "name": "producer",
              "type": "string"
            },
            {
              "internalType": "string",
              "name": "dateCreated",
              "type": "string"
            },
            {
              "internalType": "uint256",
              "name": "docLength",
              "type": "uint256"
            }
          ],
          "internalType": "struct TamperProof.Document",
          "name": "",
          "type": "tuple"
        }
      ],
      "stateMutability": "view",
      "type": "function"
    }
  ],
  "bytecode": "0x608060405234801561001057600080fd5b5033600160006101000a81548173ffffffffffffffffffffffffffffffffffffffff021916908373ffffffffffffffffffffffffffffffffffffffff16021790555060006002819055506112c9806100696000396000f3fe608060405234801561001057600080fd5b50600436106100575760003560e01c806317594e1e1461005c5780633f9b250a146100785780636e9960c3146100a85780639c26fb0e146100c6578063a87d942c146100f6575b600080fd5b610076600480360381019061007191906109cd565b610114565b005b610092600480360381019061008d9190610ae6565b610291565b60405161009f9190610c59565b60405180910390f35b6100b06105ab565b6040516100bd9190610cbc565b60405180910390f35b6100e060048036038101906100db9190610cd7565b6105d5565b6040516100ed9190610e20565b60405180910390f35b6100fe6107f6565b60405161010b9190610e4a565b60405180910390f35b3373ffffffffffffffffffffffffffffffffffffffff16600160009054906101000a900473ffffffffffffffffffffffffffffffffffffffff1673ffffffffffffffffffffffffffffffffffffffff161461019b576040517f48e67f6700000000000000000000000000000000000000000000000000000000815260040160405180910390fd5b60006040518060e0016040528060025481526020018881526020018781526020018681526020018581526020018481526020018381525090508060008060025481526020019081526020016000206000820151816000015560208201518160010190816102089190611071565b50604082015181600201908161021e9190611071565b5060608201518160030190816102349190611071565b50608082015181600401908161024a9190611071565b5060a08201518160050190816102609190611071565b5060c082015181600601559050506001600260008282546102819190611172565b9250508190555050505050505050565b610299610800565b6000808381526020019081526020016000206040518060e0016040529081600082015481526020016001820180546102d090610e94565b80601f01602080910402602001604051908101604052809291908181526020018280546102fc90610e94565b80156103495780601f1061031e57610100808354040283529160200191610349565b820191906000526020600020905b81548152906001019060200180831161032c57829003601f168201915b5050505050815260200160028201805461036290610e94565b80601f016020809104026020016040519081016040528092919081815260200182805461038e90610e94565b80156103db5780601f106103b0576101008083540402835291602001916103db565b820191906000526020600020905b8154815290600101906020018083116103be57829003601f168201915b505050505081526020016003820180546103f490610e94565b80601f016020809104026020016040519081016040528092919081815260200182805461042090610e94565b801561046d5780601f106104425761010080835404028352916020019161046d565b820191906000526020600020905b81548152906001019060200180831161045057829003601f168201915b5050505050815260200160048201805461048690610e94565b80601f01602080910402602001604051908101604052809291908181526020018280546104b290610e94565b80156104ff5780601f106104d4576101008083540402835291602001916104ff565b820191906000526020600020905b8154815290600101906020018083116104e257829003601f168201915b5050505050815260200160058201805461051890610e94565b80601f016020809104026020016040519081016040528092919081815260200182805461054490610e94565b80156105915780601f1061056657610100808354040283529160200191610591565b820191906000526020600020905b81548152906001019060200180831161057457829003601f168201915b505050505081526020016006820154815250509050919050565b6000600160009054906101000a900473ffffffffffffffffffffffffffffffffffffffff16905090565b6000806000808a815260200190815260200160002090506000816001016040516020016106029190611234565b6040516020818303038152906040528051906020012089604051602001610629919061127c565b604051602081830303815290604052805190602001201490506000826002016040516020016106589190611234565b604051602081830303815290604052805190602001208960405160200161067f919061127c565b604051602081830303815290604052805190602001201490506000836003016040516020016106ae9190611234565b60405160208183030381529060405280519060200120896040516020016106d5919061127c565b604051602081830303815290604052805190602001201490506000846004016040516020016107049190611234565b604051602081830303815290604052805190602001208960405160200161072b919061127c565b6040516020818303038152906040528051906020012014905060008560050160405160200161075a9190611234565b6040516020818303038152906040528051906020012089604051602001610781919061127c565b60405160208183030381529060405280519060200120149050600086600601548914905060008680156107b15750855b80156107ba5750845b80156107c35750855b80156107cc5750835b80156107d55750825b80156107de5750815b90508098505050505050505050979650505050505050565b6000600254905090565b6040518060e00160405280600081526020016060815260200160608152602001606081526020016060815260200160608152602001600081525090565b6000604051905090565b600080fd5b600080fd5b600080fd5b600080fd5b6000601f19601f8301169050919050565b7f4e487b7100000000000000000000000000000000000000000000000000000000600052604160045260246000fd5b6108a48261085b565b810181811067ffffffffffffffff821117156108c3576108c261086c565b5b80604052505050565b60006108d661083d565b90506108e2828261089b565b919050565b600067ffffffffffffffff8211156109025761090161086c565b5b61090b8261085b565b9050602081019050919050565b82818337600083830152505050565b600061093a610935846108e7565b6108cc565b90508281526020810184848401111561095657610955610856565b5b610961848285610918565b509392505050565b600082601f83011261097e5761097d610851565b5b813561098e848260208601610927565b91505092915050565b6000819050919050565b6109aa81610997565b81146109b557600080fd5b50565b6000813590506109c7816109a1565b92915050565b60008060008060008060c087890312156109ea576109e9610847565b5b600087013567ffffffffffffffff811115610a0857610a0761084c565b5b610a1489828a01610969565b965050602087013567ffffffffffffffff811115610a3557610a3461084c565b5b610a4189828a01610969565b955050604087013567ffffffffffffffff811115610a6257610a6161084c565b5b610a6e89828a01610969565b945050606087013567ffffffffffffffff811115610a8f57610a8e61084c565b5b610a9b89828a01610969565b935050608087013567ffffffffffffffff811115610abc57610abb61084c565b5b610ac889828a01610969565b92505060a0610ad989828a016109b8565b9150509295509295509295565b600060208284031215610afc57610afb610847565b5b6000610b0a848285016109b8565b91505092915050565b610b1c81610997565b82525050565b600081519050919050565b600082825260208201905092915050565b60005b83811015610b5c578082015181840152602081019050610b41565b60008484015250505050565b6000610b7382610b22565b610b7d8185610b2d565b9350610b8d818560208601610b3e565b610b968161085b565b840191505092915050565b600060e083016000830151610bb96000860182610b13565b5060208301518482036020860152610bd18282610b68565b91505060408301518482036040860152610beb8282610b68565b91505060608301518482036060860152610c058282610b68565b91505060808301518482036080860152610c1f8282610b68565b91505060a083015184820360a0860152610c398282610b68565b91505060c0830151610c4e60c0860182610b13565b508091505092915050565b60006020820190508181036000830152610c738184610ba1565b905092915050565b600073ffffffffffffffffffffffffffffffffffffffff82169050919050565b6000610ca682610c7b565b9050919050565b610cb681610c9b565b82525050565b6000602082019050610cd16000830184610cad565b92915050565b600080600080600080600060e0888a031215610cf657610cf5610847565b5b6000610d048a828b016109b8565b975050602088013567ffffffffffffffff811115610d2557610d2461084c565b5b610d318a828b01610969565b965050604088013567ffffffffffffffff811115610d5257610d5161084c565b5b610d5e8a828b01610969565b955050606088013567ffffffffffffffff811115610d7f57610d7e61084c565b5b610d8b8a828b01610969565b945050608088013567ffffffffffffffff811115610dac57610dab61084c565b5b610db88a828b01610969565b93505060a088013567ffffffffffffffff811115610dd957610dd861084c565b5b610de58a828b01610969565b92505060c0610df68a828b016109b8565b91505092959891949750929550565b60008115159050919050565b610e1a81610e05565b82525050565b6000602082019050610e356000830184610e11565b92915050565b610e4481610997565b82525050565b6000602082019050610e5f6000830184610e3b565b92915050565b7f4e487b7100000000000000000000000000000000000000000000000000000000600052602260045260246000fd5b60006002820490506001821680610eac57607f821691505b602082108103610ebf57610ebe610e65565b5b50919050565b60008190508160005260206000209050919050565b60006020601f8301049050919050565b600082821b905092915050565b600060088302610f277fffffffffffffffffffffffffffffffffffffffffffffffffffffffffffffffff82610eea565b610f318683610eea565b95508019841693508086168417925050509392505050565b6000819050919050565b6000610f6e610f69610f6484610997565b610f49565b610997565b9050919050565b6000819050919050565b610f8883610f53565b610f9c610f9482610f75565b848454610ef7565b825550505050565b600090565b610fb1610fa4565b610fbc818484610f7f565b505050565b5b81811015610fe057610fd5600082610fa9565b600181019050610fc2565b5050565b601f82111561102557610ff681610ec5565b610fff84610eda565b8101602085101561100e578190505b61102261101a85610eda565b830182610fc1565b50505b505050565b600082821c905092915050565b60006110486000198460080261102a565b1980831691505092915050565b60006110618383611037565b9150826002028217905092915050565b61107a82610b22565b67ffffffffffffffff8111156110935761109261086c565b5b61109d8254610e94565b6110a8828285610fe4565b600060209050601f8311600181146110db57600084156110c9578287015190505b6110d38582611055565b86555061113b565b601f1984166110e986610ec5565b60005b82811015611111578489015182556001820191506020850194506020810190506110ec565b8683101561112e578489015161112a601f891682611037565b8355505b6001600288020188555050505b505050505050565b7f4e487b7100000000000000000000000000000000000000000000000000000000600052601160045260246000fd5b600061117d82610997565b915061118883610997565b92508282019050808211156111a05761119f611143565b5b92915050565b600081905092915050565b600081546111be81610e94565b6111c881866111a6565b945060018216600081146111e357600181146111f85761122b565b60ff198316865281151582028601935061122b565b61120185610ec5565b60005b8381101561122357815481890152600182019150602081019050611204565b838801955050505b50505092915050565b600061124082846111b1565b915081905092915050565b600061125682610b22565b61126081856111a6565b9350611270818560208601610b3e565b80840191505092915050565b6000611288828461124b565b91508190509291505056fea2646970667358221220cc819a04b95d60a0886876b8f1458055e3c482364a58a523a6d378ee6c10262264736f6c63430008120033",
  "linkReferences": {},
  "deployedLinkReferences": {}
}